{
  "_format": "hh-sol-artifact-1",
  "contractName": "Transactions",
  "sourceName": "contracts/Transactions.sol",
  "contractAddress": "0x9fE46736679d2D9a65F0992F2272dE9f3c7fa6e0",
  "abi": [
    {
      "anonymous": false,
      "inputs": [
        {
          "indexed": false,
          "internalType": "address",
          "name": "from",
          "type": "address"
        },
        {
          "indexed": false,
          "internalType": "address",
          "name": "receiver",
          "type": "address"
        },
        {
          "indexed": false,
          "internalType": "uint256",
          "name": "amount",
          "type": "uint256"
        },
        {
          "indexed": false,
          "internalType": "string",
          "name": "message",
          "type": "string"
        },
        {
          "indexed": false,
          "internalType": "uint256",
          "name": "timestamp",
          "type": "uint256"
        },
        {
          "indexed": false,
          "internalType": "string",
          "name": "keyword",
          "type": "string"
        }
      ],
      "name": "Transfer",
      "type": "event"
    },
    {
      "inputs": [
        {
          "internalType": "address",
          "name": "receiver",
          "type": "address"
        },
        {
          "internalType": "uint256",
          "name": "amount",
          "type": "uint256"
        },
        {
          "internalType": "string",
          "name": "message",
          "type": "string"
        },
        {
          "internalType": "string",
          "name": "keyword",
          "type": "string"
        }
      ],
      "name": "addToBlockchain",
      "outputs": [],
      "stateMutability": "payable",
      "type": "function"
    },
    {
      "inputs": [],
      "name": "getAllTransaction",
      "outputs": [
        {
          "components": [
            {
              "internalType": "address",
              "name": "sender",
              "type": "address"
            },
            {
              "internalType": "address",
              "name": "receiver",
              "type": "address"
            },
            {
              "internalType": "uint256",
              "name": "amount",
              "type": "uint256"
            },
            {
              "internalType": "string",
              "name": "message",
              "type": "string"
            },
            {
              "internalType": "uint256",
              "name": "timestamp",
              "type": "uint256"
            },
            {
              "internalType": "string",
              "name": "keyword",
              "type": "string"
            }
          ],
          "internalType": "struct Transactions.transferStruct[]",
          "name": "",
          "type": "tuple[]"
        }
      ],
      "stateMutability": "view",
      "type": "function"
    },
    {
      "inputs": [],
      "name": "getTransactionCount",
      "outputs": [
        {
          "internalType": "uint256",
          "name": "",
          "type": "uint256"
        }
      ],
      "stateMutability": "view",
      "type": "function"
    },
    {
      "inputs": [],
      "name": "transactionCount",
      "outputs": [
        {
          "internalType": "uint256",
          "name": "",
          "type": "uint256"
        }
      ],
      "stateMutability": "view",
      "type": "function"
    },
    {
      "inputs": [
        {
          "internalType": "uint256",
          "name": "",
          "type": "uint256"
        }
      ],
      "name": "transactions",
      "outputs": [
        {
          "internalType": "address",
          "name": "sender",
          "type": "address"
        },
        {
          "internalType": "address",
          "name": "receiver",
          "type": "address"
        },
        {
          "internalType": "uint256",
          "name": "amount",
          "type": "uint256"
        },
        {
          "internalType": "string",
          "name": "message",
          "type": "string"
        },
        {
          "internalType": "uint256",
          "name": "timestamp",
          "type": "uint256"
        },
        {
          "internalType": "string",
          "name": "keyword",
          "type": "string"
        }
      ],
      "stateMutability": "view",
      "type": "function"
    }
  ],
  "bytecode": "0x608060405234801561001057600080fd5b50611004806100206000396000f3fe60806040526004361061004a5760003560e01c80632e7700f01461004f5780639ace38c21461007a578063add6415d146100bc578063b77bf600146100e7578063cc2d7ead14610112575b600080fd5b34801561005b57600080fd5b5061006461012e565b60405161007191906106e9565b60405180910390f35b34801561008657600080fd5b506100a1600480360381019061009c9190610744565b610137565b6040516100b396959493929190610842565b60405180910390f35b3480156100c857600080fd5b506100d16102d3565b6040516100de9190610a6b565b60405180910390f35b3480156100f357600080fd5b506100fc610516565b60405161010991906106e9565b60405180910390f35b61012c60048036038101906101279190610bee565b61051c565b005b60008054905090565b6001818154811061014757600080fd5b90600052602060002090600602016000915090508060000160009054906101000a900473ffffffffffffffffffffffffffffffffffffffff16908060010160009054906101000a900473ffffffffffffffffffffffffffffffffffffffff16908060020154908060030180546101bc90610cbc565b80601f01602080910402602001604051908101604052809291908181526020018280546101e890610cbc565b80156102355780601f1061020a57610100808354040283529160200191610235565b820191906000526020600020905b81548152906001019060200180831161021857829003601f168201915b50505050509080600401549080600501805461025090610cbc565b80601f016020809104026020016040519081016040528092919081815260200182805461027c90610cbc565b80156102c95780601f1061029e576101008083540402835291602001916102c9565b820191906000526020600020905b8154815290600101906020018083116102ac57829003601f168201915b5050505050905086565b60606001805480602002602001604051908101604052809291908181526020016000905b8282101561050d57838290600052602060002090600602016040518060c00160405290816000820160009054906101000a900473ffffffffffffffffffffffffffffffffffffffff1673ffffffffffffffffffffffffffffffffffffffff1673ffffffffffffffffffffffffffffffffffffffff1681526020016001820160009054906101000a900473ffffffffffffffffffffffffffffffffffffffff1673ffffffffffffffffffffffffffffffffffffffff1673ffffffffffffffffffffffffffffffffffffffff168152602001600282015481526020016003820180546103e090610cbc565b80601f016020809104026020016040519081016040528092919081815260200182805461040c90610cbc565b80156104595780601f1061042e57610100808354040283529160200191610459565b820191906000526020600020905b81548152906001019060200180831161043c57829003601f168201915b505050505081526020016004820154815260200160058201805461047c90610cbc565b80601f01602080910402602001604051908101604052809291908181526020018280546104a890610cbc565b80156104f55780601f106104ca576101008083540402835291602001916104f5565b820191906000526020600020905b8154815290600101906020018083116104d857829003601f168201915b505050505081525050815260200190600101906102f7565b50505050905090565b60005481565b600160008082825461052e9190610d1c565b9250508190555060016040518060c001604052803373ffffffffffffffffffffffffffffffffffffffff1681526020018673ffffffffffffffffffffffffffffffffffffffff16815260200185815260200184815260200142815260200183815250908060018154018082558091505060019003906000526020600020906006020160009091909190915060008201518160000160006101000a81548173ffffffffffffffffffffffffffffffffffffffff021916908373ffffffffffffffffffffffffffffffffffffffff16021790555060208201518160010160006101000a81548173ffffffffffffffffffffffffffffffffffffffff021916908373ffffffffffffffffffffffffffffffffffffffff1602179055506040820151816002015560608201518160030190816106669190610efc565b506080820151816004015560a08201518160050190816106869190610efc565b5050507f416cfa4330a4565f45c2fd2dd4826a83a37443aba2ce6f79477c7355afac35fa3385858542866040516106c296959493929190610842565b60405180910390a150505050565b6000819050919050565b6106e3816106d0565b82525050565b60006020820190506106fe60008301846106da565b92915050565b6000604051905090565b600080fd5b600080fd5b610721816106d0565b811461072c57600080fd5b50565b60008135905061073e81610718565b92915050565b60006020828403121561075a5761075961070e565b5b60006107688482850161072f565b91505092915050565b600073ffffffffffffffffffffffffffffffffffffffff82169050919050565b600061079c82610771565b9050919050565b6107ac81610791565b82525050565b600081519050919050565b600082825260208201905092915050565b60005b838110156107ec5780820151818401526020810190506107d1565b60008484015250505050565b6000601f19601f8301169050919050565b6000610814826107b2565b61081e81856107bd565b935061082e8185602086016107ce565b610837816107f8565b840191505092915050565b600060c08201905061085760008301896107a3565b61086460208301886107a3565b61087160408301876106da565b81810360608301526108838186610809565b905061089260808301856106da565b81810360a08301526108a48184610809565b9050979650505050505050565b600081519050919050565b600082825260208201905092915050565b6000819050602082019050919050565b6108e681610791565b82525050565b6108f5816106d0565b82525050565b600082825260208201905092915050565b6000610917826107b2565b61092181856108fb565b93506109318185602086016107ce565b61093a816107f8565b840191505092915050565b600060c08301600083015161095d60008601826108dd565b50602083015161097060208601826108dd565b50604083015161098360408601826108ec565b506060830151848203606086015261099b828261090c565b91505060808301516109b060808601826108ec565b5060a083015184820360a08601526109c8828261090c565b9150508091505092915050565b60006109e18383610945565b905092915050565b6000602082019050919050565b6000610a01826108b1565b610a0b81856108bc565b935083602082028501610a1d856108cd565b8060005b85811015610a595784840389528151610a3a85826109d5565b9450610a45836109e9565b925060208a01995050600181019050610a21565b50829750879550505050505092915050565b60006020820190508181036000830152610a8581846109f6565b905092915050565b610a9681610791565b8114610aa157600080fd5b50565b600081359050610ab381610a8d565b92915050565b600080fd5b600080fd5b7f4e487b7100000000000000000000000000000000000000000000000000000000600052604160045260246000fd5b610afb826107f8565b810181811067ffffffffffffffff82111715610b1a57610b19610ac3565b5b80604052505050565b6000610b2d610704565b9050610b398282610af2565b919050565b600067ffffffffffffffff821115610b5957610b58610ac3565b5b610b62826107f8565b9050602081019050919050565b82818337600083830152505050565b6000610b91610b8c84610b3e565b610b23565b905082815260208101848484011115610bad57610bac610abe565b5b610bb8848285610b6f565b509392505050565b600082601f830112610bd557610bd4610ab9565b5b8135610be5848260208601610b7e565b91505092915050565b60008060008060808587031215610c0857610c0761070e565b5b6000610c1687828801610aa4565b9450506020610c278782880161072f565b935050604085013567ffffffffffffffff811115610c4857610c47610713565b5b610c5487828801610bc0565b925050606085013567ffffffffffffffff811115610c7557610c74610713565b5b610c8187828801610bc0565b91505092959194509250565b7f4e487b7100000000000000000000000000000000000000000000000000000000600052602260045260246000fd5b60006002820490506001821680610cd457607f821691505b602082108103610ce757610ce6610c8d565b5b50919050565b7f4e487b7100000000000000000000000000000000000000000000000000000000600052601160045260246000fd5b6000610d27826106d0565b9150610d32836106d0565b9250828201905080821115610d4a57610d49610ced565b5b92915050565b60008190508160005260206000209050919050565b60006020601f8301049050919050565b600082821b905092915050565b600060088302610db27fffffffffffffffffffffffffffffffffffffffffffffffffffffffffffffffff82610d75565b610dbc8683610d75565b95508019841693508086168417925050509392505050565b6000819050919050565b6000610df9610df4610def846106d0565b610dd4565b6106d0565b9050919050565b6000819050919050565b610e1383610dde565b610e27610e1f82610e00565b848454610d82565b825550505050565b600090565b610e3c610e2f565b610e47818484610e0a565b505050565b5b81811015610e6b57610e60600082610e34565b600181019050610e4d565b5050565b601f821115610eb057610e8181610d50565b610e8a84610d65565b81016020851015610e99578190505b610ead610ea585610d65565b830182610e4c565b50505b505050565b600082821c905092915050565b6000610ed360001984600802610eb5565b1980831691505092915050565b6000610eec8383610ec2565b9150826002028217905092915050565b610f05826107b2565b67ffffffffffffffff811115610f1e57610f1d610ac3565b5b610f288254610cbc565b610f33828285610e6f565b600060209050601f831160018114610f665760008415610f54578287015190505b610f5e8582610ee0565b865550610fc6565b601f198416610f7486610d50565b60005b82811015610f9c57848901518255600182019150602085019450602081019050610f77565b86831015610fb95784890151610fb5601f891682610ec2565b8355505b6001600288020188555050505b50505050505056fea264697066735822122034f7ee0efc4576440f9b1a18a8bfa745af978b63ca7e18ecf34c035ab0c1018e64736f6c63430008110033",
  "linkReferences": {},
  "deployedLinkReferences": {}
}